:1000000001308A003F29000021308400831300085A
:10001000031918280130F800F701F70B0D28F80B29
:100020000C284A30F700F70B13281628800B0A28F3
:1000300008001230A202031C2C28223084008313F3
:10004000FC3080050310800C800C000803192C285C
:100050002A280000800B2928080083160611831225
:1000600006150130A1000420831606118312061123
:100070001230A10004200530A100BB30A2001920DD
:10008000A10B3D288A110A125B29831606118312DF
:1000900006150130A1000420C830A20019208316E3
:1000A0000611831206111230A10004200530A100B0
:1000B000BB30A2001920A10B58288A110A125F290F
:1000C00083160611831206150130A10004200230A8
:1000D000A100C530A2001920A10B692883160611C2
:1000E000831206111230A10004200530A100BB309C
:1000F000A2001920A10B77288A110A1263298316FE
:100100000611831206150130A10004200430A1005D
:10011000C530A2001920A10B88288316061183126E
:1001200006111230A10004200530A100BB30A2004E
:100130001920A10B96288A110A1267298316061125
:10014000831206150230A1000420831606118312C3
:1001500006111230A10004200530A100BB30A2001E
:100160001920A10BAE288A110A126B298316861159
:10017000831286150130A100042083168611831294
:1001800086111230A10004200530A100BB30A2006E
:100190001920A10BC6288A110A126F29831686110D
:1001A000831286150130A1000420C830A200192056
:1001B00083168611831286111230A10004200530A7
:1001C000A100BB30A2001920A10BE1288A110A125C
:1001D000732983168611831286150130A10004202D
:1001E0000230A100F730A2001920A10BF2288316DB
:1001F0008611831286111230A10004200530A1005F
:10020000BB30A2001920A10B00298A110A127729FC
:1002100083168611831286150130A1000420043054
:10022000A100AC30A2001920A10B11298316861160
:10023000831286111230A10004200530A100BB30CA
:10024000A2001920A10B1F298A110A127B298316EB
:100250008611831286150230A100042083168611B0
:10026000831286111230A10004200530A100BB309A
:10027000A2001920A10B37298A110A127F2903082D
:100280001F398300193083169900A63098009030EA
:100290008312980083161F149F141F159F11073097
:1002A0009C00831383128C1E53291A08A000200877
:1002B000613C03192D282008623C031945282008B9
:1002C000633C031960282008643C03197F28200838
:1002D000653C03199E282008663C0319B6282008AF
:1002E000673C0319CE282008683C0319E928200838
:1002F000693C0319082920086A3C03192729532956
:02030000630098
:02400E00313F40
:00000001FF
;PIC16F877A
;CRC=A743  CREATED="29-jul.-21 03:18"
